---
title: "ٹرانزیکشنز"
description: "ایتھیریم ٹرانزیکشنز کا ایک جائزہ – وہ کیسے کام کرتے ہیں، ان کا ڈیٹا اسٹرکچر، اور انہیں کسی ایپلیکیشن کے ذریعے کیسے بھیجا جائے۔"
lang: ur-in
---

ٹرانزیکشنز اکاؤنٹس سے بھیجی گئی کرپٹوگرافک طور پر دستخط شدہ ہدایات ہیں۔ ایک اکاؤنٹ ایتھیریم نیٹ ورک کی حالت کو اپ ڈیٹ کرنے کے لیے ایک ٹرانزیکشن شروع کرے گا۔ سب سے آسان ٹرانزیکشن ایک اکاؤنٹ سے دوسرے اکاؤنٹ میں ETH منتقل کرنا ہے۔

## شرائط {#prerequisites}

اس صفحہ کو بہتر طور پر سمجھنے میں آپ کی مدد کرنے کے لیے، ہم تجویز کرتے ہیں کہ آپ پہلے [اکاؤنٹس](/developers/docs/accounts/) اور ہمارا [ایتھیریم کا تعارف](/developers/docs/intro-to-ethereum/) پڑھیں۔

## ٹرانزیکشن کیا ہے؟ {#whats-a-transaction}

ایتھیریم ٹرانزیکشن سے مراد ایک بیرونی ملکیت والے اکاؤنٹ کے ذریعے شروع کی گئی کارروائی ہے، دوسرے الفاظ میں ایک ایسا اکاؤنٹ جسے انسان کے ذریعے منظم کیا جاتا ہے، نہ کہ کسی کنٹریکٹ کے ذریعے۔ مثال کے طور پر، اگر باب ایلس کو 1 ETH بھیجتا ہے، تو باب کے اکاؤنٹ سے ڈیبٹ ہونا چاہیے اور ایلس کے اکاؤنٹ میں کریڈٹ ہونا چاہیے۔ یہ حالت بدلنے والی کارروائی ایک ٹرانزیکشن کے اندر ہوتی ہے۔

![ٹرانزیکشن کی وجہ سے حالت میں تبدیلی کو ظاہر کرنے والا ڈایاگرام](./tx.png)
_[ایتھیریم EVM کی تصویری وضاحت](https://takenobu-hs.github.io/downloads/ethereum_evm_illustrated.pdf) سے لیا گیا ڈایاگرام_

ٹرانزیکشنز، جو EVM کی حالت کو تبدیل کرتی ہیں، کو پورے نیٹ ورک پر براڈکاسٹ کرنے کی ضرورت ہوتی ہے۔ کوئی بھی نوڈ EVM پر ٹرانزیکشن کو انجام دینے کی درخواست کو براڈکاسٹ کر سکتا ہے؛ اس کے بعد، ایک ویلیڈیٹر ٹرانزیکشن کو انجام دے گا اور نتیجے میں ہونے والی حالت کی تبدیلی کو باقی نیٹ ورک تک پھیلائے گا۔

ٹرانزیکشنز کے لیے فیس درکار ہوتی ہے اور انہیں ایک توثیق شدہ بلاک میں شامل کیا جانا چاہیے۔ اس جائزے کو آسان بنانے کے لیے ہم گیس فیس اور توثیق کو کہیں اور کور کریں گے۔

جمع کرائی گئی ٹرانزیکشن میں درج ذیل معلومات شامل ہوتی ہیں:

- `from` – بھیجنے والے کا پتہ، جو ٹرانزیکشن پر دستخط کرے گا۔ یہ ایک بیرونی ملکیت والا اکاؤنٹ ہوگا کیونکہ کنٹریکٹ اکاؤنٹس ٹرانزیکشن نہیں بھیج سکتے۔
- `to` – وصول کرنے والا پتہ (اگر ایک بیرونی ملکیت والا اکاؤنٹ ہے، تو ٹرانزیکشن قدر منتقل کرے گا۔ اگر ایک کنٹریکٹ اکاؤنٹ ہے، تو ٹرانزیکشن کنٹریکٹ کوڈ کو انجام دے گی)
- `signature` – بھیجنے والے کی شناخت کنندہ۔ یہ اس وقت پیدا ہوتا ہے جب بھیجنے والے کی نجی کلید ٹرانزیکشن پر دستخط کرتی ہے اور تصدیق کرتی ہے کہ بھیجنے والے نے اس ٹرانزیکشن کی اجازت دی ہے۔
- `nonce` - ایک ترتیب سے بڑھنے والا کاؤنٹر جو اکاؤنٹ سے ٹرانزیکشن نمبر کی نشاندہی کرتا ہے۔
- `value` – بھیجنے والے سے وصول کنندہ کو منتقل کی جانے والی ETH کی رقم (WEI میں ظاہر کی گئی، جہاں 1ETH برابر ہے 1e+18wei کے)
- `input data` – صوابدیدی ڈیٹا شامل کرنے کے لیے اختیاری فیلڈ۔
- `gasLimit` – گیس یونٹس کی زیادہ سے زیادہ مقدار جو ٹرانزیکشن کے ذریعے استعمال کی جا سکتی ہے۔ [EVM](/developers/docs/evm/opcodes) ہر حسابی مرحلے کے لیے درکار گیس کی اکائیوں کی وضاحت کرتا ہے۔
- `maxPriorityFeePerGas` - استعمال شدہ گیس کی زیادہ سے زیادہ قیمت جو ویلیڈیٹر کو ٹپ کے طور پر شامل کی جائے گی۔
- `maxFeePerGas` - ٹرانزیکشن کے لیے ادا کی جانے والی فی یونٹ گیس کی زیادہ سے زیادہ فیس (`baseFeePerGas` اور `maxPriorityFeePerGas` سمیت)۔

گیس اس حساب کا حوالہ ہے جو ایک ویلیڈیٹر کے ذریعے ٹرانزیکشن پر کارروائی کرنے کے لیے درکار ہوتا ہے۔ صارفین کو اس حساب کے لیے فیس ادا کرنی ہوتی ہے۔ `gasLimit`، اور `maxPriorityFeePerGas` ویلیڈیٹر کو ادا کی جانے والی زیادہ سے زیادہ ٹرانزیکشن فیس کا تعین کرتے ہیں۔ [گیس پر مزید](/developers/docs/gas/).

ٹرانزیکشن آبجیکٹ کچھ اس طرح نظر آئے گا:

```js
{
  from: "0xEA674fdDe714fd979de3EdF0F56AA9716B898ec8",
  to: "0xac03bb73b6a9e108530aff4df5077c2b3d481e5a",
  gasLimit: "21000",
  maxFeePerGas: "300",
  maxPriorityFeePerGas: "10",
  nonce: "0",
  value: "10000000000"
}
```

لیکن ایک ٹرانزیکشن آبجیکٹ کو بھیجنے والے کی نجی کلید کا استعمال کرتے ہوئے دستخط کرنے کی ضرورت ہوتی ہے۔ یہ ثابت کرتا ہے کہ ٹرانزیکشن صرف بھیجنے والے کی طرف سے آسکتی تھی اور دھوکہ دہی سے نہیں بھیجی گئی تھی۔

ایک ایتھیریم کلائنٹ جیسے Geth اس دستخطی عمل کو سنبھالے گا۔

مثال [JSON-RPC](/developers/docs/apis/json-rpc) کال:

```json
{
  "id": 2,
  "jsonrpc": "2.0",
  "method": "account_signTransaction",
  "params": [
    {
      "from": "0x1923f626bb8dc025849e00f99c25fe2b2f7fb0db",
      "gas": "0x55555",
      "maxFeePerGas": "0x1234",
      "maxPriorityFeePerGas": "0x1234",
      "input": "0xabcd",
      "nonce": "0x0",
      "to": "0x07a565b7ed7d7a678680a4c162885bedbb695fe0",
      "value": "0x1234"
    }
  ]
}
```

مثال کے طور پر جواب:

```json
{
  "jsonrpc": "2.0",
  "id": 2,
  "result": {
    "raw": "0xf88380018203339407a565b7ed7d7a678680a4c162885bedbb695fe080a44401a6e4000000000000000000000000000000000000000000000000000000000000001226a0223a7c9bcf5531c99be5ea7082183816eb20cfe0bbc322e97cc5c7f71ab8b20ea02aadee6b34b45bb15bc42d9c09de4a6754e7000908da72d48cc7704971491663",
    "tx": {
      "nonce": "0x0",
      "maxFeePerGas": "0x1234",
      "maxPriorityFeePerGas": "0x1234",
      "gas": "0x55555",
      "to": "0x07a565b7ed7d7a678680a4c162885bedbb695fe0",
      "value": "0x1234",
      "input": "0xabcd",
      "v": "0x26",
      "r": "0x223a7c9bcf5531c99be5ea7082183816eb20cfe0bbc322e97cc5c7f71ab8b20e",
      "s": "0x2aadee6b34b45bb15bc42d9c09de4a6754e7000908da72d48cc7704971491663",
      "hash": "0xeba2df809e7a612a0a0d444ccfa5c839624bdc00dd29e3340d46df3870f8a30e"
    }
  }
}
```

- `raw` دستخط شدہ ٹرانزیکشن ہے [ریکرسیو لینتھ پریفکس (RLP)](/developers/docs/data-structures-and-encoding/rlp) انکوڈ شدہ شکل میں۔
- `tx` دستخط شدہ ٹرانزیکشن JSON شکل میں ہے۔

دستخطی ہیش کے ساتھ، ٹرانزیکشن کو کرپٹوگرافک طور پر ثابت کیا جا سکتا ہے کہ یہ بھیجنے والے کی طرف سے آئی ہے اور نیٹ ورک پر جمع کرائی گئی ہے۔

### ڈیٹا فیلڈ {#the-data-field}

ٹرانزیکشنز کی بڑی اکثریت ایک بیرونی ملکیت والے اکاؤنٹ سے ایک کنٹریکٹ تک رسائی حاصل کرتی ہے۔
زیادہ تر کنٹریکٹس Solidity میں لکھے جاتے ہیں اور اپنے ڈیٹا فیلڈ کی تشریح [ایپلیکیشن بائنری انٹرفیس (ABI)](/glossary/#abi) کے مطابق کرتے ہیں۔

پہلے چار بائٹس یہ بتاتے ہیں کہ کون سا فنکشن کال کرنا ہے، فنکشن کے نام اور دلائل کے ہیش کا استعمال کرتے ہوئے۔
آپ کبھی کبھی [اس ڈیٹا بیس](https://www.4byte.directory/signatures/) کا استعمال کرتے ہوئے سلیکٹر سے فنکشن کی شناخت کر سکتے ہیں۔

باقی کال ڈیٹا دلائل ہیں، [ABI کی خصوصیات میں بیان کردہ کے مطابق انکوڈ شدہ](https://docs.soliditylang.org/en/latest/abi-spec.html#formal-specification-of-the-encoding)۔

مثال کے طور پر، آئیے [اس ٹرانزیکشن](https://etherscan.io/tx/0xd0dcbe007569fcfa1902dae0ab8b4e078efe42e231786312289b1eee5590f6a1) کو دیکھتے ہیں۔
کال ڈیٹا دیکھنے کے لیے **مزید دیکھنے کے لیے کلک کریں** استعمال کریں۔

فنکشن سلیکٹر `0xa9059cbb` ہے۔ اس دستخط کے ساتھ کئی [معروف فنکشنز](https://www.4byte.directory/signatures/?bytes4_signature=0xa9059cbb) ہیں۔
اس صورت میں [کنٹریکٹ کا سورس کوڈ](https://etherscan.io/address/0xa0b86991c6218b36c1d19d4a2e9eb0ce3606eb48#code) Etherscan پر اپ لوڈ کیا گیا ہے، لہذا ہم جانتے ہیں کہ فنکشن `transfer(address,uint256)` ہے۔

باقی ڈیٹا یہ ہے:

```
0000000000000000000000004f6742badb049791cd9a37ea913f2bac38d01279
000000000000000000000000000000000000000000000000000000003b0559f4
```

ABI کی خصوصیات کے مطابق، انٹیجر ویلیوز (جیسے کہ ایڈریس، جو 20 بائٹ انٹیجرز ہیں) ABI میں 32 بائٹ کے الفاظ کے طور پر ظاہر ہوتے ہیں، جن کے سامنے صفر کے ساتھ پیڈنگ کی جاتی ہے۔
لہذا ہم جانتے ہیں کہ `to` ایڈریس [`4f6742badb049791cd9a37ea913f2bac38d01279`](https://etherscan.io/address/0x4f6742badb049791cd9a37ea913f2bac38d01279) ہے۔
`value` 0x3b0559f4 = 990206452 ہے۔

## ٹرانزیکشنز کی اقسام {#types-of-transactions}

ایتھیریم پر چند مختلف قسم کی ٹرانزیکشنز ہوتی ہیں:

- باقاعدہ ٹرانزیکشنز: ایک اکاؤنٹ سے دوسرے اکاؤنٹ میں ایک ٹرانزیکشن۔
- کنٹریکٹ کی تعیناتی کی ٹرانزیکشنز: ایک 'to' ایڈریس کے بغیر ایک ٹرانزیکشن، جہاں ڈیٹا فیلڈ کنٹریکٹ کوڈ کے لیے استعمال ہوتا ہے۔
- کنٹریکٹ کا نفاذ: ایک ٹرانزیکشن جو ایک تعینات شدہ اسمارٹ کنٹریکٹ کے ساتھ تعامل کرتی ہے۔ اس صورت میں، 'to' ایڈریس اسمارٹ کنٹریکٹ ایڈریس ہے۔

### گیس پر {#on-gas}

جیسا کہ ذکر کیا گیا ہے، ٹرانزیکشنز کو انجام دینے کے لیے [گیس](/developers/docs/gas/) کی لاگت آتی ہے۔ سادہ منتقلی کی ٹرانزیکشنز کے لیے 21000 یونٹ گیس درکار ہوتی ہے۔

لہذا باب کو ایلس کو 190 gwei کے `baseFeePerGas` اور 10 gwei کے `maxPriorityFeePerGas` پر 1 ETH بھیجنے کے لیے، باب کو درج ذیل فیس ادا کرنی ہوگی:

```
(190 + 10) * 21000 = 4,200,000 gwei
--or--
0.0042 ETH
```

باب کے اکاؤنٹ سے **-1.0042 ETH** ڈیبٹ کیا جائے گا (ایلس کے لیے 1 ETH + گیس فیس میں 0.0042 ETH)

ایلس کے اکاؤنٹ میں **+1.0 ETH** کریڈٹ کیا جائے گا۔

بیس فیس **-0.00399 ETH** جلا دی جائے گی۔

ویلیڈیٹر ٹپ **+0.000210 ETH** رکھتا ہے۔

![ڈایاگرام جس میں دکھایا گیا ہے کہ غیر استعمال شدہ گیس کیسے واپس کی جاتی ہے](./gas-tx.png)
_[ایتھیریم EVM کی تصویری وضاحت](https://takenobu-hs.github.io/downloads/ethereum_evm_illustrated.pdf) سے لیا گیا ڈایاگرام_

کسی ٹرانزیکشن میں استعمال نہ ہونے والی کوئی بھی گیس صارف کے اکاؤنٹ میں واپس کر دی جاتی ہے۔

### اسمارٹ کنٹریکٹ کے تعاملات {#smart-contract-interactions}

کسی بھی ٹرانزیکشن کے لیے گیس درکار ہے جس میں اسمارٹ کنٹریکٹ شامل ہو۔

اسمارٹ کنٹریکٹس میں [`view`](https://docs.soliditylang.org/en/latest/contracts.html#view-functions) یا [`pure`](https://docs.soliditylang.org/en/latest/contracts.html#pure-functions) فنکشنز کے نام سے جانے جانے والے فنکشنز بھی شامل ہو سکتے ہیں، جو کنٹریکٹ کی حالت کو تبدیل نہیں کرتے ہیں۔ اس طرح، EOA سے ان فنکشنز کو کال کرنے کے لیے کسی گیس کی ضرورت نہیں ہوگی۔ اس منظر نامے کے لیے بنیادی RPC کال [`eth_call`](/developers/docs/apis/json-rpc#eth_call) ہے۔

`eth_call` کا استعمال کرتے ہوئے رسائی حاصل کرنے کے برعکس، یہ `view` یا `pure` فنکشنز عام طور پر اندرونی طور پر بھی کال کیے جاتے ہیں (یعنی، خود کنٹریکٹ سے یا کسی دوسرے کنٹریکٹ سے) جس پر گیس کی لاگت آتی ہے۔

## ٹرانزیکشن لائف سائیکل {#transaction-lifecycle}

ایک بار ٹرانزیکشن جمع ہو جانے کے بعد درج ذیل ہوتا ہے:

1. ایک ٹرانزیکشن ہیش کرپٹوگرافک طور پر تیار کیا جاتا ہے:
   `0x97d99bc7729211111a21b12c933c949d4f31684f1d6954ff477d0477538ff017`
2. اس کے بعد ٹرانزیکشن کو نیٹ ورک پر براڈکاسٹ کیا جاتا ہے اور ایک ٹرانزیکشن پول میں شامل کیا جاتا ہے جس میں دیگر تمام زیر التواء نیٹ ورک ٹرانزیکشنز شامل ہوتے ہیں۔
3. ایک ویلیڈیٹر کو آپ کی ٹرانزیکشن کو منتخب کرنا ہوگا اور اسے ٹرانزیکشن کی تصدیق کرنے اور اسے "کامیاب" سمجھنے کے لیے ایک بلاک میں شامل کرنا ہوگا۔
4. جیسے جیسے وقت گزرتا ہے آپ کی ٹرانزیکشن پر مشتمل بلاک کو "جواز" پھر "حتمی" میں اپ گریڈ کر دیا جائے گا۔ یہ اپ گریڈ اس بات کو بہت زیادہ یقینی بناتے ہیں کہ آپ کی ٹرانزیکشن کامیاب تھی اور اسے کبھی تبدیل نہیں کیا جائے گا۔ ایک بار جب کوئی بلاک "حتمی" ہو جاتا ہے تو اسے صرف ایک نیٹ ورک سطح کے حملے سے ہی تبدیل کیا جا سکتا ہے جس پر کئی بلین ڈالر لاگت آئے گی۔

## ایک بصری ڈیمو {#a-visual-demo}

آسٹن کو ٹرانزیکشنز، گیس، اور مائننگ کے بارے میں بتاتے ہوئے دیکھیں۔

<YouTube id="er-0ihqFQB0" />

## ٹائپ شدہ ٹرانزیکشن انویلپ {#typed-transaction-envelope}

ایتھیریم میں اصل میں ٹرانزیکشنز کے لیے ایک ہی فارمیٹ تھا۔ ہر ٹرانزیکشن میں ایک نانس، گیس کی قیمت، گیس کی حد، ٹو ایڈریس، ویلیو، ڈیٹا، v، r، اور s شامل ہوتے تھے۔ یہ فیلڈز [RLP-انکوڈڈ](/developers/docs/data-structures-and-encoding/rlp/) ہیں، جو کچھ اس طرح نظر آتے ہیں:

`RLP([nonce, gasPrice, gasLimit, to, value, data, v, r, s])`

ایتھیریم نے کئی قسم کی ٹرانزیکشنز کو سپورٹ کرنے کے لیے ترقی کی ہے تاکہ ایکسیس لسٹ اور [EIP-1559](https://eips.ethereum.org/EIPS/eip-1559) جیسی نئی خصوصیات کو پرانے ٹرانزیکشن فارمیٹس کو متاثر کیے بغیر نافذ کیا جا سکے۔

[EIP-2718](https://eips.ethereum.org/EIPS/eip-2718) وہی ہے جو اس طرز عمل کی اجازت دیتا ہے۔ ٹرانزیکشنز کی تشریح اس طرح کی جاتی ہے:

`TransactionType || TransactionPayload`

جہاں فیلڈز کی تعریف اس طرح کی گئی ہے:

- `TransactionType` - 0 اور 0x7f کے درمیان ایک عدد، کل 128 ممکنہ ٹرانزیکشن اقسام کے لیے۔
- `TransactionPayload` - ٹرانزیکشن کی قسم کے ذریعے بیان کردہ ایک صوابدیدی بائٹ ارے۔

`TransactionType` قدر کی بنیاد پر، ایک ٹرانزیکشن کو اس طرح درجہ بندی کیا جا سکتا ہے:

1. **قسم 0 (لیگیسی) ٹرانزیکشنز:** ایتھیریم کے آغاز کے بعد سے استعمال ہونے والا اصل ٹرانزیکشن فارمیٹ۔ ان میں [EIP-1559](https://eips.ethereum.org/EIPS/eip-1559) کی خصوصیات شامل نہیں ہیں جیسے ڈائنامک گیس فیس کا حساب یا اسمارٹ کنٹریکٹس کے لیے ایکسیس لسٹ۔ لیگیسی ٹرانزیکشنز میں ان کی سیریلائزڈ شکل میں ان کی قسم کی نشاندہی کرنے والے ایک مخصوص پریفکس کی کمی ہوتی ہے، جو [ریکرسیو لینتھ پریفکس (RLP)](/developers/docs/data-structures-and-encoding/rlp) انکوڈنگ کا استعمال کرتے وقت بائٹ `0xf8` سے شروع ہوتی ہے۔ ان ٹرانزیکشنز کے لیے TransactionType کی قدر `0x0` ہے۔

2. **قسم 1 ٹرانزیکشنز:** ایتھیریم کے [برلن اپ گریڈ](/ethereum-forks/#berlin) کے حصے کے طور پر [EIP-2930](https://eips.ethereum.org/EIPS/eip-2930) میں متعارف کرائی گئیں، ان ٹرانزیکشنز میں ایک `accessList` پیرامیٹر شامل ہے۔ یہ فہرست ان پتوں اور اسٹوریج کیز کی وضاحت کرتی ہے جن تک ٹرانزیکشن رسائی کی توقع رکھتی ہے، جو اسمارٹ کنٹریکٹس پر مشتمل پیچیدہ ٹرانزیکشنز کے لیے ممکنہ طور پر [گیس](/developers/docs/gas/) کے اخراجات کو کم کرنے میں مدد کرتی ہے۔ EIP-1559 فیس مارکیٹ کی تبدیلیاں قسم 1 کی ٹرانزیکشنز میں شامل نہیں ہیں۔ قسم 1 کی ٹرانزیکشنز میں ایک `yParity` پیرامیٹر بھی شامل ہوتا ہے، جو یا تو `0x0` یا `0x1` ہو سکتا ہے، جو secp256k1 دستخط کی y-value کی پیریٹی کی نشاندہی کرتا ہے۔ ان کی شناخت بائٹ `0x01` سے شروع ہونے سے ہوتی ہے، اور ان کی TransactionType کی قدر `0x1` ہے۔

3. **قسم 2 ٹرانزیکشنز**، جنہیں عام طور پر EIP-1559 ٹرانزیکشنز کہا جاتا ہے، وہ ٹرانزیکشنز ہیں جو ایتھیریم کے [لندن اپ گریڈ](/ethereum-forks/#london) میں، [EIP-1559](https://eips.ethereum.org/EIPS/eip-1559) میں متعارف کرائی گئی ہیں۔ وہ ایتھیریم نیٹ ورک پر معیاری ٹرانزیکشن کی قسم بن گئے ہیں۔ یہ ٹرانزیکشنز ایک نیا فیس مارکیٹ میکانزم متعارف کراتے ہیں جو ٹرانزیکشن فیس کو ایک بیس فیس اور ایک ترجیحی فیس میں الگ کرکے پیشین گوئی کو بہتر بناتا ہے۔ وہ بائٹ `0x02` سے شروع ہوتے ہیں اور ان میں `maxPriorityFeePerGas` اور `maxFeePerGas` جیسے فیلڈز شامل ہوتے ہیں۔ قسم 2 کی ٹرانزیکشنز اب ان کی لچک اور کارکردگی کی وجہ سے ڈیفالٹ ہیں، خاص طور پر زیادہ نیٹ ورک کی بھیڑ کے دوران ان کی صارفین کو ٹرانزیکشن فیس کو زیادہ پیشین گوئی کے ساتھ منظم کرنے میں مدد کرنے کی صلاحیت کی وجہ سے پسند کی جاتی ہیں۔ ان ٹرانزیکشنز کے لیے TransactionType کی قدر `0x2` ہے۔

4. **قسم 3 (بلاب) ٹرانزیکشنز** ایتھیریم کے [Dencun اپ گریڈ](/ethereum-forks/#dencun) کے حصے کے طور پر [EIP-4844](https://eips.ethereum.org/EIPS/eip-4844) میں متعارف کرائی گئیں۔ یہ ٹرانزیکشنز "blob" ڈیٹا (بائنری لارج آبجیکٹس) کو زیادہ مؤثر طریقے سے ہینڈل کرنے کے لیے ڈیزائن کی گئی ہیں، خاص طور پر Layer 2 رول اپس کو کم قیمت پر ایتھیریم نیٹ ورک پر ڈیٹا پوسٹ کرنے کا ایک طریقہ فراہم کرکے فائدہ پہنچاتی ہیں۔ بلاب ٹرانزیکشنز میں اضافی فیلڈز جیسے `blobVersionedHashes`، `maxFeePerBlobGas`، اور `blobGasPrice` شامل ہیں۔ وہ بائٹ `0x03` سے شروع ہوتے ہیں، اور ان کی TransactionType کی قدر `0x3` ہے۔ بلاب ٹرانزیکشنز ایتھیریم کی ڈیٹا کی دستیابی اور اسکیلنگ کی صلاحیتوں میں ایک اہم بہتری کی نمائندگی کرتی ہیں۔

5. **قسم 4 ٹرانزیکشنز** ایتھیریم کے [Pectra اپ گریڈ](/roadmap/pectra/) کے حصے کے طور پر [EIP-7702](https://eips.ethereum.org/EIPS/eip-7702) میں متعارف کرائی گئیں۔ یہ ٹرانزیکشنز اکاؤنٹ ابسٹریکشن کے ساتھ فارورڈ-کمپیٹیبل ہونے کے لیے ڈیزائن کی گئی ہیں۔ وہ EOAs کو اپنی اصل فعالیت پر سمجھوتہ کیے بغیر عارضی طور پر اسمارٹ کنٹریکٹ اکاؤنٹس کی طرح برتاؤ کرنے کی اجازت دیتے ہیں۔ ان میں ایک `authorization_list` پیرامیٹر شامل ہوتا ہے، جو اس اسمارٹ کنٹریکٹ کی وضاحت کرتا ہے جس پر EOA اپنے اختیار کو تفویض کرتا ہے۔ ٹرانزیکشن کے بعد، EOA کے کوڈ فیلڈ میں تفویض کردہ اسمارٹ کنٹریکٹ کا پتہ ہوگا۔

## مزید پڑھیں {#further-reading}

- [EIP-2718: ٹائپ شدہ ٹرانزیکشن انویلپ](https://eips.ethereum.org/EIPS/eip-2718)

_کسی کمیونٹی وسیلے کے بارے میں جانتے ہیں جس نے آپ کی مدد کی ہو؟ اس صفحہ میں ترمیم کریں اور اسے شامل کریں!_

## متعلقہ موضوعات {#related-topics}

- [اکاؤنٹس](/developers/docs/accounts/)
- [ایتھیریم ورچوئل مشین (EVM)](/developers/docs/evm/)
- [گیس](/developers/docs/gas/)
