---
title: பரிவர்த்தனைகள்
description: எத்தேரியம் பரிவர்த்தனைகளின் மேலோட்டம் – அவை எவ்வாறு செயல்படுகின்றன, அவற்றின் தரவு அமைப்பு மற்றும் ஒரு பயன்பாட்டின் மூலம் அவற்றை எவ்வாறு அனுப்புவது.
lang: ta
---

பரிவர்த்தனைகள் என்பது கணக்குகளிடமிருந்து கிரிப்டோகிராபிக் முறையில் கையெழுத்திடப்பட்ட (cryptographically signed) வழிகாட்டுதல்கள் ஆகும். ஒரு கணக்கு எதீரியம் நெட்வொர்க் நிலையை (state) புதுப்பிக்க ஒரு பரிவர்த்தனையை தொடங்கும். எளிய பரிவர்த்தனை என்பது ஒரு கணக்கிலிருந்து மற்றொரு கணக்கிற்கு ETH மாற்றுவதாகும்.

## முன்னேற்றக் கட்டுரை {#prerequisites}

இந்தப் பக்கத்தை நீங்கள் நன்கு புரிந்துகொள்ள உதவ, முதலில் [கணக்குகள்](/developers/docs/accounts/) மற்றும் எங்களின் [எத்தேரியம் அறிமுகம்](/developers/docs/intro-to-ethereum/) ஆகியவற்றைப் படிக்கப் பரிந்துரைக்கிறோம்.

## பரிவர்த்தனை என்பது என்ன? {#whats-a-transaction}

எதீரியம் பரிவர்த்தனை என்பது வெளிப்புறமாக நிர்வகிக்கப்பட்ட (externally-owned) கணக்கால் தொடங்கப்பட்ட செயலுக்கு (action) குறிப்பிடுகிறது, அதாவது ஒரு மனிதனால் (human) நிர்வகிக்கப்பட்ட கணக்கு, ஒப்பந்தம் (contract) அல்ல. உதாரணமாக, பாப் (Bob) அலீஸ் (Alice) க்கு 1 ETH அனுப்பினால், பாப் கணக்கில் தொகை கழிக்கப்பட்டு, அலீஸ் கணக்கில் சேர்க்கப்பட வேண்டும். இந்த நிலை மாற்றும் செயல் பரிவர்த்தனையின் (transaction) உள்ளே நடைபெறும்.

![பரிவர்த்தனை நிலை மாற்றத்தை ஏற்படுத்தும் வரைபடத்தைக் காட்டும் வரைபடம்](./tx.png)
_[Ethereum EVM illustrated](https://takenobu-hs.github.io/downloads/ethereum_evm_illustrated.pdf) இலிருந்து தழுவி எடுக்கப்பட்ட வரைபடம்_

EVM நிலையை மாற்றும் பரிவர்த்தனைகள் முழு நெட்வொர்க்-க்கு ஒளிபரப்பப்பட வேண்டும். EVM-இல் பரிவர்த்தனை செயற்படுத்தப்பட வேண்டும் என்ற கோரிக்கையை எந்த நோடும் ஒளிபரப்பலாம்; இதற்கு பின், ஒரு வாலிடேட்டர் பரிவர்த்தனையை செயல்படுத்தி, உருவான நிலை மாற்றத்தை மற்ற அனைத்து நோட்களுக்கும் பரப்பும்.

பரிவர்த்தனைகள் என்பது கணக்குகளிடமிருந்து கிரிப்டோகிராபிக் முறையில் கையெழுத்திடப்பட்ட (cryptographically signed) வழிகாட்டுதல்கள் ஆகும். இந்த கண்ணோட்டத்தை எளிதாக்க, எங்காவது தனியாக gas கட்டணங்கள் மற்றும் ஒப்புதல் (validation) பற்றி விவரிக்கப்படும்..

ஒரு சமர்ப்பிக்கப்பட்ட பரிவர்த்தனையில் பின்வரும் தகவல்கள் இடம்பெறும்:

- `from` – பரிவர்த்தனையில் கையொப்பமிடும் அனுப்புநரின் முகவரி. இது வெளிப்புற கணக்கு (externally-owned account) ஆகும்; ஒப்பந்த கணக்குகள் பரிவர்த்தனைகளை அனுப்ப முடியாது
- `to` – பெறும் முகவரி (ஒரு வெளிப்புறச் சொந்தமான கணக்காக இருந்தால், பரிவர்த்தனை மதிப்பை மாற்றும். Contract account என்றால், ஒப்பந்தக் குறியீட்டை இயக்கும்)
- `signature` – அனுப்புநரின் அடையாளங்காட்டி. அனுப்புநரின் தனிப்பட்ட விசை (private key) பரிவர்த்தனையில் கையெழுத்திடும்போது உருவாக்கப்படுகிறது மற்றும் அனுப்புநர் இதை அங்கீகாரம் செய்தார் என்பதை உறுதிப்படுத்துகிறது
- `nonce` - ஒரு கணக்கிலிருந்து வரும் பரிவர்த்தனை எண்ணைக் குறிக்கும், தொடர்ச்சியாக அதிகரிக்கும் ஒரு எண்ணி.
- `value` – அனுப்புநரிடமிருந்து பெறுநருக்கு மாற்ற வேண்டிய ETH அளவு (WEI இல் குறிக்கப்படுகிறது, இங்கு 1ETH = 1e+18wei)
- `input data` – தன்னிச்சையான தரவைச் சேர்க்க விருப்பத் தேர்வுப் புலம்.
- `gasLimit` – பரிவர்த்தனையால் பயன்படுத்தக்கூடிய அதிகபட்ச கேஸ் அலகுகளின் அளவு. [EVM](/developers/docs/evm/opcodes) ஒவ்வொரு கணக்கீட்டுப் படிக்கும் தேவைப்படும் கேஸ் அலகுகளைக் குறிப்பிடுகிறது.
- `maxPriorityFeePerGas` - வாலிடேட்டருக்கான டிப்ஸாகச் சேர்க்கப்படும், பயன்படுத்தப்பட்ட கேஸுக்கான அதிகபட்ச விலை.
- `maxFeePerGas` - பரிவர்த்தனைக்காக செலுத்தத் தயாராக உள்ள ஒரு யூனிட் கேஸுக்கான அதிகபட்ச கட்டணம் (`baseFeePerGas` மற்றும் `maxPriorityFeePerGas` உட்பட).

கேஸ் என்பது வாலிடேட்டர் பரிவர்த்தனையை செயல்படுத்த தேவையான கணினி படிகளுக்கான ஒரு குறிப்பு. பயனர்கள் இந்த கணினி படிகளுக்கு கட்டணம் செலுத்த வேண்டும். `gasLimit` மற்றும் `maxPriorityFeePerGas` ஆகியவை வாலிடேட்டருக்கு செலுத்தப்படும் அதிகபட்ச பரிவர்த்தனை கட்டணத்தை தீர்மானிக்கின்றன. [கேஸ் பற்றி மேலும்](/developers/docs/gas/).

பரிவர்த்தனை பொருள் (transaction object) இதுபோல் இருக்கும்:

```js
{
  from: "0xEA674fdDe714fd979de3EdF0F56AA9716B898ec8",
  to: "0xac03bb73b6a9e108530aff4df5077c2b3d481e5a",
  gasLimit: "21000",
  maxFeePerGas: "300",
  maxPriorityFeePerGas: "10",
  nonce: "0",
  value: "10000000000"
}
```

ஆனால் ஒரு பரிவர்த்தனை பொருள் (transaction object) அனுப்புநரின் தனிப்பட்ட விசை (private key) பயன்படுத்தி கையெழுத்திடப்பட வேண்டும். இது பரிவர்த்தனை அனுப்புநரிடமிருந்து மட்டுமே வந்தது என்பதை நிரூபிக்கும், மற்றும் மோசடியால் அனுப்பப்படவில்லை என்பதை உறுதிசெய்கிறது.

Geth போன்ற எதீரியம் கிளையண்ட் (Ethereum client) இந்த கையெழுத்து செயல்முறையை கையாளும்.

எடுத்துக்காட்டு [JSON-RPC](/developers/docs/apis/json-rpc) அழைப்பு:

```json
{
  "id": 2,
  "jsonrpc": "2.0",
  "method": "account_signTransaction",
  "params": [
    {
      "from": "0x1923f626bb8dc025849e00f99c25fe2b2f7fb0db",
      "gas": "0x55555",
      "maxFeePerGas": "0x1234",
      "maxPriorityFeePerGas": "0x1234",
      "input": "0xabcd",
      "nonce": "0x0",
      "to": "0x07a565b7ed7d7a678680a4c162885bedbb695fe0",
      "value": "0x1234"
    }
  ]
}
```

எடுத்துக்காட்டு பதில்:

```json
{
  "jsonrpc": "2.0",
  "id": 2,
  "result": {
    "raw": "0xf88380018203339407a565b7ed7d7a678680a4c162885bedbb695fe080a44401a6e4000000000000000000000000000000000000000000000000000000000000001226a0223a7c9bcf5531c99be5ea7082183816eb20cfe0bbc322e97cc5c7f71ab8b20ea02aadee6b34b45bb15bc42d9c09de4a6754e7000908da72d48cc7704971491663",
    "tx": {
      "nonce": "0x0",
      "maxFeePerGas": "0x1234",
      "maxPriorityFeePerGas": "0x1234",
      "gas": "0x55555",
      "to": "0x07a565b7ed7d7a678680a4c162885bedbb695fe0",
      "value": "0x1234",
      "input": "0xabcd",
      "v": "0x26",
      "r": "0x223a7c9bcf5531c99be5ea7082183816eb20cfe0bbc322e97cc5c7f71ab8b20e",
      "s": "0x2aadee6b34b45bb15bc42d9c09de4a6754e7000908da72d48cc7704971491663",
      "hash": "0xeba2df809e7a612a0a0d444ccfa5c839624bdc00dd29e3340d46df3870f8a30e"
    }
  }
}
```

- `raw` என்பது [தொடர் நீள முன்னொட்டு (RLP)](/developers/docs/data-structures-and-encoding/rlp) குறியாக்கம் செய்யப்பட்ட வடிவத்தில் கையொப்பமிடப்பட்ட பரிவர்த்தனை ஆகும்.
- `tx` என்பது JSON வடிவத்தில் கையொப்பமிடப்பட்ட பரிவர்த்தனை ஆகும்.

கையெழுத்து ஹாஷ் மூலம், பரிவர்த்தனை அனுப்புநரிடமிருந்து வந்தது மற்றும் நெட்வொர்க்-க்கு சமர்ப்பிக்கப்பட்டது என்பதை கிரிப்டோகிராபிக் முறையில் நிரூபிக்கலாம்.

### தரவுப் புலம் {#the-data-field}

பெரும்பாலான பரிவர்த்தனைகள் வெளிப்புற கணக்கிலிருந்து (externally-owned account) ஒரு ஒப்பந்தத்தை அணுகுகின்றன.
பெரும்பாலான ஒப்பந்தங்கள் சொலிடிட்டியில் எழுதப்பட்டு, அவற்றின் தரவுப் புலத்தை [பயன்பாட்டு பைனரி இடைமுகம் (ABI)](/glossary/#abi)க்கு ஏற்ப விளக்குகின்றன.

முதலான நான்கு பைட்டுகள் எந்த செயல்பாட்டை (function) அழைக்க வேண்டும் என்பதைக் குறிப்பிடுகின்றன, செயல்பாட்டின் பெயர் மற்றும் அளவுருக்களின் ஹாஷ் (hash) பயன்படுத்தி.
நீங்கள் சில நேரங்களில் [இந்த தரவுத்தளத்தைப்](https://www.4byte.directory/signatures/) பயன்படுத்தி தேர்வியிலிருந்து (selector) செயல்பாட்டை அடையாளம் காணலாம்.

மீதமுள்ள அழைப்புத்தரவு (calldata) வாதங்கள் ஆகும், அவை [ABI விவரக்குறிப்புகளில் குறிப்பிடப்பட்டுள்ளபடி குறியாக்கம் செய்யப்பட்டுள்ளன](https://docs.soliditylang.org/en/latest/abi-spec.html#formal-specification-of-the-encoding).

எடுத்துக்காட்டாக, [இந்த பரிவர்த்தனையைப்](https://etherscan.io/tx/0xd0dcbe007569fcfa1902dae0ab8b4e078efe42e231786312289b1eee5590f6a1) பார்ப்போம்.
அழைப்புத்தரவைப் பார்க்க **Click to see More** என்பதைப் பயன்படுத்தவும்.

செயல்பாட்டு தேர்வி (function selector) `0xa9059cbb` ஆகும். [இந்த கையொப்பத்துடன் பல அறியப்பட்ட செயல்பாடுகள்](https://www.4byte.directory/signatures/?bytes4_signature=0xa9059cbb) உள்ளன.
இந்த நிலையில், [ஒப்பந்தத்தின் மூலக் குறியீடு](https://etherscan.io/address/0xa0b86991c6218b36c1d19d4a2e9eb0ce3606eb48#code) Etherscan இல் பதிவேற்றப்பட்டுள்ளது, எனவே செயல்பாடு `transfer(address,uint256)` என்பது நமக்குத் தெரியும்.

மீதமான தரவு:

```
0000000000000000000000004f6742badb049791cd9a37ea913f2bac38d01279
000000000000000000000000000000000000000000000000000000003b0559f4
```

ABI விவரங்கள் படி, முழு எண்கள் (integer values, உதாரணமாக 20-பைட் முகவரிகள்) ABI-இல் 32-பைட் வார்டுகளாக (words) தோன்றும், முன்னணியில் பூஜ்ஜியங்களுடன் (zeros) பூர்த்தி செய்யப்பட்டு.
எனவே, `to` முகவரி [`4f6742badb049791cd9a37ea913f2bac38d01279`](https://etherscan.io/address/0x4f6742badb049791cd9a37ea913f2bac38d01279) என்பது நமக்குத் தெரியும்.
`value` என்பது 0x3b0559f4 = 990206452.

## பரிவர்த்தனைகளின் வகைகள் {#types-of-transactions}

எதீரியத்தில் சில வேறு வகையான பரிவர்த்தனைகள் உள்ளன:

- பொதுவான பரிவர்த்தனைகள்: ஒரு கணக்கிலிருந்து மற்றொரு கணக்குக்கு பரிவர்த்தனை.
- ஒப்பந்தத் (contract) அமைப்பு பரிவர்த்தனைகள்: 'to' முகவரி இல்லாத பரிவர்த்தனை, இதில் தரவு புலம் ஒப்பந்தக் குறியீட்டுக்குப் பயன்படுத்தப்படுகிறது.
- ஒப்பந்த செயல்பாடு: நிர்வகிக்கப்பட்ட smart contract உடன் தொடர்பு கொண்ட பரிவர்த்தனை. இதில் 'to' முகவரி smart contract முகவரியாகும்.

### கேஸ் குறித்து {#on-gas}

குறிப்பிட்டபடி, பரிவர்த்தனைகளைச் செயல்படுத்த [கேஸ்](/developers/docs/gas/) செலவாகும். எளிய மாற்று பரிவர்த்தனைகள் 21,000 gas யூனிட்கள் தேவைப்படும்.

எனவே, பாப் ஆலிஸுக்கு 1 ETH-ஐ, 190 gwei `baseFeePerGas` மற்றும் 10 gwei `maxPriorityFeePerGas` என்ற அளவில் அனுப்ப, பாப் பின்வரும் கட்டணத்தைச் செலுத்த வேண்டும்:

```
(190 + 10) * 21000 = 4,200,000 gwei
--or--
0.0042 ETH
```

பாபின் கணக்கிலிருந்து **-1.0042 ETH** பற்று வைக்கப்படும் (ஆலிஸுக்கு 1 ETH + கேஸ் கட்டணமாக 0.0042 ETH)

ஆலிஸின் கணக்கில் **+1.0 ETH** வரவு வைக்கப்படும்

அடிப்படை கட்டணம் **-0.00399 ETH** எரிக்கப்படும்

வாலிடேட்டர் டிப்ஸை **+0.000210 ETH** வைத்துக்கொள்வார்

![பயன்படுத்தப்படாத கேஸ் எவ்வாறு திரும்ப அளிக்கப்படுகிறது என்பதைக் காட்டும் வரைபடம்](./gas-tx.png)
_[Ethereum EVM illustrated](https://takenobu-hs.github.io/downloads/ethereum_evm_illustrated.pdf) இலிருந்து தழுவி எடுக்கப்பட்ட வரைபடம்_

ஒரு பரிவர்த்தனையில் பயன்படுத்தப்படாத gas பயனர் கணக்குக்கு திரும்பப்பெறப்படும்.

### திறன்மிகு ஒப்பந்த தொடர்புகள் {#smart-contract-interactions}

Smart contract உடன் தொடர்புடைய எந்த பரிவர்த்தனைக்கும் gas தேவைப்படும்.

திறன்மிகு ஒப்பந்தங்கள், ஒப்பந்தத்தின் நிலையை மாற்றாத [`view`](https://docs.soliditylang.org/en/latest/contracts.html#view-functions) அல்லது [`pure`](https://docs.soliditylang.org/en/latest/contracts.html#pure-functions) எனப்படும் செயல்பாடுகளையும் கொண்டிருக்கலாம். இதனால், EOA-இலிருந்து இந்த functions அழைக்கப்பட்டால் எந்த gas-ஐ வேண்டாம். இதற்கான அடிப்படை RPC அழைப்பு eth_call ஆகும். இந்தச் சூழ்நிலைக்கான அடிப்படை RPC அழைப்பு [`eth_call`](/developers/docs/apis/json-rpc#eth_call) ஆகும்.

`eth_call` ஐப் பயன்படுத்தி அணுகும்போது போலல்லாமல், இந்த `view` அல்லது `pure` செயல்பாடுகள் பொதுவாக உள்வழியாகவும் (அதாவது, ஒப்பந்தத்திலிருந்து அல்லது மற்றொரு ஒப்பந்தத்திலிருந்து) அழைக்கப்படுகின்றன, இதற்கு கேஸ் செலவாகும்.

## பரிவர்த்தனை வாழ்க்கைச் சுழற்சி {#transaction-lifecycle}

பரிவர்த்தனை சமர்ப்பிக்கப்பட்டதும் பின்வரும் செயல்கள் நடைபெறும்:

1. ஒரு பரிவர்த்தனைத் துண்டி குறியாக்கவியல் ரீதியாக உருவாக்கப்படுகிறது:
   `0x97d99bc7729211111a21b12c933c949d4f31684f1d6954ff477d0477538ff017`
2. பரிவர்த்தனை நெட்வொர்க்-க்கு ஒளிபரப்பப்பட்டு, மற்ற அனைத்து நிலுவை பரிவர்த்தனைகள் உள்ள பரிவர்த்தனை புலத்தில் (transaction pool) சேர்க்கப்படுகிறது.
3. ஒரு வாலிடேட்டர் உங்கள் பரிவர்த்தனையை தேர்ந்தெடுத்து, பரிவர்த்தனையை சரிபார்க்கவும், “வெற்றி பெற்றது” எனக் கருதவும் ஒரு பிளாக்கில் சேர்க்க வேண்டும்.
4. காலப்போக்கில், உங்கள் பரிவர்த்தனை உள்ள பிளாக் "justified" ஆகவும், பின்னர் "finalized" ஆகவும் மேம்படுத்தப்படும். இந்த மேம்பாடுகள் உங்கள் பரிவர்த்தனை வெற்றிகரமாக இருந்தது மற்றும் ஒருபோதும் மாற்றப்படாது என்பதை மிகவும் உறுதியாக்குகின்றன. ஒரு பிளாக் "இறுதிசெய்யப்பட்ட"வுடன், பல பில்லியன் டாலர்கள் செலவாகும் நெட்வொர்க் அளவிலான தாக்குதலால் மட்டுமே அதை மாற்ற முடியும்.

## ஒரு காட்சி விளக்கவுரை {#a-visual-demo}

ஆஸ்டின் உங்களுக்கு பரிவர்த்தனைகள், gas மற்றும் மைனிங் பற்றி விளக்குகிறார்.

<YouTube id="er-0ihqFQB0" />

## தட்டச்சு செய்யப்பட்ட பரிவர்த்தனை உறை {#typed-transaction-envelope}

எதீரியம் ஆரம்பத்தில் ஒரு மாதிரி (format) பரிவர்த்தனைகளுக்கே இருந்தது. ஒவ்வொரு பரிவர்த்தனையிலும் nonce, gas price, gas limit, to முகவரி, value, data, v, r, மற்றும் s புலங்கள் இருந்தன. இந்தப் புலங்கள் [RLP-குறியாக்கம்](/developers/docs/data-structures-and-encoding/rlp/) செய்யப்பட்டவை, இதுபோன்று இருக்கும்:

`RLP([nonce, gasPrice, gasLimit, to, value, data, v, r, s])`

பாரம்பரிய பரிவர்த்தனை வடிவங்களைப் பாதிக்காமல், அணுகல் பட்டியல்கள் மற்றும் [EIP-1559](https://eips.ethereum.org/EIPS/eip-1559) போன்ற புதிய அம்சங்களைச் செயல்படுத்த, பல வகையான பரிவர்த்தனைகளை ஆதரிப்பதற்காக எத்தேரியம் பரிணமித்துள்ளது.

[EIP-2718](https://eips.ethereum.org/EIPS/eip-2718) இந்த நடத்தைக்கு அனுமதிக்கிறது. பரிவர்த்தனைகள் இதுபோல் புரிந்துகொள்ளப்படும்:

`TransactionType || TransactionPayload`

புலங்கள் (fields) வரையறுக்கப்படுகின்றன:

- `TransactionType` - 0 மற்றும் 0x7f க்கு இடைப்பட்ட ஒரு எண், மொத்தத்தில் 128 சாத்தியமான பரிவர்த்தனை வகைகளைக் குறிக்கும்.
- `TransactionPayload` - பரிவர்த்தனை வகையால் வரையறுக்கப்பட்ட ஒரு தன்னிச்சையான பைட் வரிசை.

`TransactionType` மதிப்பின் அடிப்படையில், ஒரு பரிவர்த்தனையை இவ்வாறு வகைப்படுத்தலாம்:

1. **வகை 0 (மரபு) பரிவர்த்தனைகள்:** எத்தேரியம் தொடங்கப்பட்டதிலிருந்து பயன்படுத்தப்படும் அசல் பரிவர்த்தனை வடிவம். அவை, மாறும் கேஸ் கட்டணக் கணக்கீடுகள் அல்லது திறன்மிகு ஒப்பந்தங்களுக்கான அணுகல் பட்டியல்கள் போன்ற [EIP-1559](https://eips.ethereum.org/EIPS/eip-1559) இலிருந்து வரும் அம்சங்களைக் கொண்டிருக்கவில்லை. மரபுப் பரிவர்த்தனைகள், வரிசைப்படுத்தப்பட்ட வடிவத்தில் அவற்றின் வகையைக் குறிக்கும் ஒரு குறிப்பிட்ட முன்னொட்டைக் கொண்டிருக்கவில்லை; [தொடர் நீள முன்னொட்டு (RLP)](/developers/docs/data-structures-and-encoding/rlp) குறியாக்கத்தைப் பயன்படுத்தும் போது பைட் `0xf8` உடன் தொடங்குகின்றன. இந்தப் பரிவர்த்தனைகளுக்கான TransactionType மதிப்பு `0x0` ஆகும்.

2. **வகை 1 பரிவர்த்தனைகள்:** எத்தேரியத்தின் [பெர்லின் மேம்பாட்டின்](/ethereum-forks/#berlin) ஒரு பகுதியாக [EIP-2930](https://eips.ethereum.org/EIPS/eip-2930) இல் அறிமுகப்படுத்தப்பட்ட இந்தப் பரிவர்த்தனைகளில் `accessList` என்ற அளவுரு உள்ளது. இந்தப் பட்டியல், பரிவர்த்தனை அணுக எதிர்பார்க்கும் முகவரிகள் மற்றும் சேமிப்பக விசைகளைக் குறிப்பிடுகிறது, இது திறன்மிகு ஒப்பந்தங்கள் சம்பந்தப்பட்ட சிக்கலான பரிவர்த்தனைகளுக்கான [கேஸ்](/developers/docs/gas/) செலவுகளைக் குறைக்க உதவுகிறது. Type 1 பரிவர்த்தனைகளில் EIP-1559 கட்டண மாற்றங்கள் இல்லை. வகை 1 பரிவர்த்தனைகளில் `yParity` என்ற அளவுருவும் அடங்கும், இது `0x0` அல்லது `0x1` ஆக இருக்கலாம், இது secp256k1 கையொப்பத்தின் y-மதிப்பின் சமநிலையைக் குறிக்கிறது. அவை பைட் `0x01` உடன் தொடங்குவதன் மூலம் அடையாளம் காணப்படுகின்றன, மேலும் அவற்றின் TransactionType மதிப்பு `0x1` ஆகும்.

3. **வகை 2 பரிவர்த்தனைகள்**, பொதுவாக EIP-1559 பரிவர்த்தனைகள் என குறிப்பிடப்படுகின்றன, இவை எத்தேரியத்தின் [லண்டன் மேம்பாட்டில்](/ethereum-forks/#london) [EIP-1559](https://eips.ethereum.org/EIPS/eip-1559) இல் அறிமுகப்படுத்தப்பட்ட பரிவர்த்தனைகள் ஆகும். எதீரியம் நெட்வொர்க்-ல் இவை வழக்கமான பரிவர்த்தனை வகையாக மாறிவிட்டன. இந்த பரிவர்த்தனைகள் புதிய கட்டண சந்தை (fee market) முறையை அறிமுகப்படுத்துகின்றன, பரிவர்த்தனை கட்டணத்தை base fee மற்றும் priority fee-ஆக பிரித்து முன்னறிவிப்பை மேம்படுத்துகிறது. அவை பைட் `0x02` உடன் தொடங்குகின்றன மற்றும் `maxPriorityFeePerGas`, `maxFeePerGas` போன்ற புலங்களை உள்ளடக்கியுள்ளன. Type 2 பரிவர்த்தனைகள் தன்னிச்சையான தன்மை மற்றும் செயல்திறன் காரணமாக தற்போது இயல்பாக பயன்படுத்தப்படுகின்றன, குறிப்பாக அதிக நெட்வொர்க் ஒத்திசைவு (congestion) காலங்களில் பயனர்களுக்கு கட்டணங்களை முன்னறிவிப்புடன் நிர்வகிக்க உதவுகின்றன. இந்தப் பரிவர்த்தனைகளுக்கான TransactionType மதிப்பு `0x2` ஆகும்.

4. **வகை 3 (பிளாப்) பரிவர்த்தனைகள்** எத்தேரியத்தின் [டென்கன் மேம்பாட்டின்](/ethereum-forks/#dencun) ஒரு பகுதியாக [EIP-4844](https://eips.ethereum.org/EIPS/eip-4844) இல் அறிமுகப்படுத்தப்பட்டன. இந்த பரிவர்த்தனைகள் "blob" தரவை (Binary Large Objects) சிறந்த முறையில் கையாள வடிவமைக்கப்பட்டவை, குறிப்பாக Layer 2 rollups க்கு குறைந்த செலவில் எதீரியம் நெட்வொர்க்கில் தரவை பதிவு செய்ய உதவும். பிளாப் பரிவர்த்தனைகளில் `blobVersionedHashes`, `maxFeePerBlobGas`, மற்றும் `blobGasPrice` போன்ற கூடுதல் புலங்கள் அடங்கும். அவை பைட் `0x03` உடன் தொடங்குகின்றன, மேலும் அவற்றின் TransactionType மதிப்பு `0x3` ஆகும். Blob பரிவர்த்தனைகள் எதீரியத்தின் தரவு கிடைக்கத்தன்மை மற்றும் விரிவாக்க திறனில் முக்கியமான முன்னேற்றத்தை குறிக்கின்றன.

5. **வகை 4 பரிவர்த்தனைகள்** எத்தேரியத்தின் [Pectra மேம்பாட்டின்](/roadmap/pectra/) ஒரு பகுதியாக [EIP-7702](https://eips.ethereum.org/EIPS/eip-7702) இல் அறிமுகப்படுத்தப்பட்டன. இந்த பரிவர்த்தனைகள் கணக்கு சுருக்கத்துடன் முன்னோக்கி-இணக்கமாக வடிவமைக்கப்பட்டுள்ளன. அவை EOA-க்களை அவற்றின் அசல் செயல்பாட்டை சமரசம் செய்யாமல் தற்காலிகமாக திறன்மிகு ஒப்பந்தக் கணக்குகளைப் போல செயல்பட அனுமதிக்கின்றன. அவற்றில் `authorization_list` என்ற அளவுரு உள்ளது, இது EOA தனது அதிகாரத்தை எந்த திறன்மிகு ஒப்பந்தத்திற்கு வழங்குகிறது என்பதைக் குறிப்பிடுகிறது. பரிவர்த்தனைக்குப் பிறகு, EOA-வின் குறியீட்டுப் புலத்தில் ஒப்படைக்கப்பட்ட திறன்மிகு ஒப்பந்தத்தின் முகவரி இருக்கும்.

## மேலும் வாசிக்க {#further-reading}

- [EIP-2718: தட்டச்சு செய்யப்பட்ட பரிவர்த்தனை உறை](https://eips.ethereum.org/EIPS/eip-2718)

_உங்களுக்கு உதவிய ஒரு சமூக வளம் பற்றி தெரியுமா?_ இந்தப் பக்கத்தைத் திருத்தி அதைச் சேர்க்கவும்!_

## தொடர்புடைய தலைப்புகள் {#related-topics}

- [கணக்குகள்](/developers/docs/accounts/)
- [எத்தேரியம் மெய்நிகர் இயந்திரம் (EVM)](/developers/docs/evm/)
- [கேஸ்](/developers/docs/gas/)
